:04000000FBEF04F01E
:10080000000001C003F0D8900336D89003363C0EA8
:100810000316C250C30B0310C26EC2B212EF04F033
:1008200016EF04F0036A032A17EF04F0036A010EBF
:10083000046E032A1EEF04F0D8900436032E1CEF3A
:1008400004F0C2B026EF04F02AEF04F0056A052A8E
:100850002BEF04F0056A010E066E052A32EF04F054
:10086000D8900636052E30EF04F006500410C21260
:10087000C2B23DEF04F03FEF04F038EF04F0C35094
:10088000C4CF03F0046A03C004F0036A0310076EC8
:100890000450086E07C001F008C002F0120079ECA5
:1008A00004F0F1EC04F0000E026E000E016E01EC9B
:1008B00004F001C00BF002C00CF0020E96EC04F044
:1008C000010E96EC04F00BC005F00CC006F0B0EC85
:1008D00004F01A0E0A6E5E0E096E6E0EE82EFED73A
:1008E000092EFCD70A2EFAD700D053EF04F000EF00
:1008F00000F00F0E936E9394939293900A0E056EF0
:10090000BC0EE82EFED7052EFCD700D0320E96EC9A
:1009100004F0280E96EC04F00C0E96EC04F0010E98
:1009200096EC04F0060E96EC04F01200046E040E31
:10093000036E3E0EE82EFED7032EFCD7000E016E8E
:100940000450DEEC04F00438F00B046EA60EE82E22
:10095000FED700D0000E016E0450DEEC04F0120051
:10096000BBEF04F005C0D9FF06C0DAFFDF50C8ECCA
:1009700004F0054A062A05C0D9FF06C0DAFFDF5099
:10098000D8A4C5EF04F0C7EF04F0B2EF04F01200F2
:10099000046E040E036E3E0EE82EFED7032EFCD727
:1009A000010E016E0450DEEC04F00438F00B046E0E
:1009B000010E016E0450DEEC04F01200026E0250D3
:1009C000F00B026E8A500F0B8A6E8A5002108A6EEC
:1009D00001B002D08A9001D08A808A928A848A9457
:1009E000120092680E0EC16EB50EC06E000EC46E7F
:1009F000000EC36E12000C6A0B6A00014FEF04F088
:020000040030CA
:0E000000000C1F1FFF8385FF0FC00FE00F4095
:00000001FF
