:04000000A5EF04F074
:10080000004953484F574D454154004E20574F52D1
:03081000440000A1
:100814000F0EC16E2FEC04F0020E4CEC04F0010E2E
:100824004CEC04F00B0E056E66EC04F0C00E4CECC0
:1008340004F0010E056E66EC04F01A0E076E5E0EEF
:10084400066E6E0EE82EFED7062EFCD7072EFAD7BC
:1008540000D00EEF04F000EF00F00F0E936E9394AF
:10086400939293900A0E056EBC0EE82EFED7052EC9
:10087400FCD700D0320E4CEC04F0280E4CEC04F003
:100884000C0E4CEC04F0010E4CEC04F0060E4CEC97
:1008940004F01200046E040E036E3E0EE82EFED722
:1008A400032EFCD7000E016E045092EC04F00438C1
:1008B400F00B046EA60EE82EFED700D0000E016EDB
:1008C400045092EC04F012006FEF04F005C0F6FF40
:1008D4000800F5507CEC04F0052A05C0F6FF08007A
:1008E400F5500009D8A479EF04F07BEF04F068EF29
:1008F40004F01200046E040E036E3E0EE82EFED7C2
:10090400032EFCD7010E016E045092EC04F004385F
:10091400F00B046E010E016E045092EC04F0120010
:10092400026E0250F00B026E8A500F0B8A6E8A50D0
:1009340002108A6E01B002D08A9001D08A808A9215
:100944008A848A941200000EF86E080EF76E000175
:040954000AEF04F0B2
:020000040030CA
:0E000000000C1F1FFF8385FF0FC00FE00F4095
:00000001FF
