:0400000028EF07F0EE
:1008000000547970652070617373776F7264005261
:1008100065696E74656E746500496E636F727265AA
:0908200063740057616974000063
:10082A00000E0F6E000E0E6E26EF05F0410E0D6ED5
:10083A00EE0EE82EFED70D2EFCD700D08C808C92BF
:10084A008C948C9683AE2CEF04F02EEF04F041EFDB
:10085A0004F083BA33EF04F035EF04F02EEF04F01E
:10086A000E50020DF350010FD96EDA6A030EDE6ED6
:10087A00000EDD6E0E4A0F2A83AC46EF04F048EFF5
:10088A0004F05BEF04F083BC4DEF04F04FEF04F08B
:10089A0048EF04F00E50020DF350010FD96EDA6AD8
:1008AA00020EDE6E000EDD6E0E4A0F2A83AA60EF7C
:1008BA0004F062EF04F075EF04F00E50020DF350ED
:1008CA00010FD96EDA6A010EDE6E000EDD6E83BA92
:1008DA0071EF04F073EF04F06CEF04F00E4A0F2A84
:1008EA0083A87AEF04F07CEF04F07EEF04F00E4A5E
:1008FA000F2A410E0D6EEE0EE82EFED70D2EFCD7F6
:10090A0000D08C908C828C948C9683AE8FEF04F0FE
:10091A0091EF04F09DEF04F00E50020DF350010F19
:10092A00D96EDA6A090EDE6E000EDD6E0E4A0F2AE5
:10093A0083ACA2EF04F0A4EF04F0B0EF04F00E5081
:10094A00020DF350010FD96EDA6A080EDE6E000E40
:10095A00DD6E0E4A0F2A83AAB5EF04F0B7EF04F052
:10096A00C3EF04F00E50020DF350010FD96EDA6A8C
:10097A00070EDE6E000EDD6E0E4A0F2A83A8C8EF40
:10098A0004F0CAEF04F0CCEF04F00E4A0F2A410E2D
:10099A000D6EEE0EE82EFED70D2EFCD700D08C90F1
:1009AA008C928C948C8683AEDDEF04F0DFEF04F03A
:1009BA00E1EF04F00E4A0F2A83ACE6EF04F0E8EF09
:1009CA0004F0F2EF04F00E50020DF350010FD96E4D
:1009DA00DA6ADE6ADD6A0E4A0F2A83AAF7EF04F0A2
:1009EA00F9EF04F0FBEF04F00E4A0F2A83A800EF98
:1009FA0005F002EF05F004EF05F00E4A0F2A80A475
:100A0A0009EF05F00BEF05F026EF05F080B410EFC3
:100A1A0005F012EF05F00BEF05F0000E026E010E65
:100A2A00016E000E046E020E036E000E066E030EB9
:100A3A00056E000E086E040E076E000E0F6E040E91
:100A4A000E6E0FBE32EF05F00F5009E1040E0E5C78
:100A5A00D8A032EF05F034EF05F01BEF04F01200D6
:100A6A000F0EC16E010E956E010E926E000E946EFF
:100A7A00B2EC06F0020ECFEC06F0010ECFEC06F057
:100A8A008B8280A44BEF05F04DEF05F094EF05F053
:100A9A0080B452EF05F054EF05F04DEF05F00BC0AE
:100AAA000DF00CC00EF0000E106E020E0F6E50EC20
:100ABA0006F00DC009F00EC00AF009C015F00AC010
:100ACA0016F0D8901536163615500B5C176E165060
:100ADA000C58186E17501810D8A476EF05F078EF56
:100AEA0005F07AEF05F08B808B9209C015F00AC0E9
:100AFA0016F0D8901536163615500B5C176E165030
:100B0A000C58186E17041810D8A48EEF05F090EF41
:100B1A0005F092EF05F08B908B820B4A0C2A80A08D
:100B2A0099EF05F09BEF05F043EF06F0010E116E09
:100B3A00E9EC06F0C00ECFEC06F0230E116EE9ECDC
:100B4A0006F0070E166E580E156E5A0EE82EFED7D0
:100B5A00152EFCD7162EFAD707EF06F0010ECFECAA
:100B6A0006F015EC04F001040210D8A4BFEF05F05A
:100B7A00C1EF05F0DFEF05F0020E03180410D8A448
:100B8A00C9EF05F0CBEF05F0DFEF05F0030E05180E
:100B9A000610D8A4D3EF05F0D5EF05F0DFEF05F086
:100BAA00040E07180810D8B4DDEF05F0DFEF05F0E2
:100BBA0007EF06F0190E116EE9EC06F0C00ECFEC45
:100BCA0006F00F0E116EE9EC06F08B828B90040E84
:100BDA00166E2C0E156EAC0EE82EFED7152EFCD70F
:100BEA00162EFAD7000E026E000E016E000E046E6B
:100BFA00000E036E000E066E000E056E000E086EE5
:100C0A00000E076E01040210D8A40EEF06F010EFD2
:100C1A0006F0B3EF05F0020E03180410D8A418EF7B
:100C2A0006F01AEF06F0B3EF05F0030E05180610EA
:100C3A00D8A422EF06F024EF06F0B3EF05F0040E75
:100C4A0007180810D8A42CEF06F02EEF06F0B3EF21
:100C5A0005F0010ECFEC06F0000E026E000E016EDA
:100C6A00000E046E000E036E000E066E000E056E78
:100C7A00000E086E000E076E8B928B8080A248EFE2
:100C8A0006F04AEF06F046EF05F08B908B8246EFAE
:100C9A0005F000EF00F0000E126E10BE59EF06F0DC
:100CAA0057EF06F05FEF06F00F6C101ED8B0102A4F
:100CBA00010E126E0EBE66EF06F064EF06F06CEFE0
:100CCA0006F00D6C0E1ED8B00E2A010E121A000E76
:100CDA00146E000E136E0F501010D8B477EF06F092
:100CEA0079EF06F0A1EF06F0010E116E81EF06F022
:100CFA00D8900F361036112A10AE86EF06F088EF1C
:100D0A0006F07DEF06F0D890133614360F500D5CBE
:100D1A0010500E58D8A094EF06F096EF06F09BEF0D
:100D2A0006F00F500D5E10500E5A1380D8901032F4
:100D3A000F32112E88EF06F01250D8B4A7EF06F042
:100D4A00A9EF06F0ADEF06F0136C141ED8B0142A02
:100D5A0013C00DF014C00EF012000F0E936E939490
:100D6A00939293900A0E116EBC0EE82EFED7112EA6
:100D7A00FCD700D0320ECFEC06F0280ECFEC06F0EE
:100D8A000C0ECFEC06F0010ECFEC06F0060ECFECFF
:100D9A0006F01200106E040E0F6E3E0EE82EFED7FD
:100DAA000F2EFCD7000E0D6E105015EC07F0103800
:100DBA00F00B106EA60EE82EFED700D0000E0D6EB8
:100DCA00105015EC07F01200F2EF06F011C0F6FF12
:100DDA000800F550FFEC06F0112A11C0F6FF0800D2
:100DEA00F5500009D8A4FCEF06F0FEEF06F0EBEF91
:100DFA0006F01200106E040E0F6E3E0EE82EFED79D
:100E0A000F2EFCD7010E0D6E105015EC07F010389E
:100E1A00F00B106E010E0D6E105015EC07F012005B
:100E2A000E6E0E50F00B0E6E8A500F0B8A6E8A50A1
:100E3A000E108A6E0DB002D08A9001D08A808A92F2
:100E4A008A848A94120000EE01F00C0EEE6AE8061B
:100E5A00FDE1000EF86E080EF76E000135EF05F0A1
:020000040030CA
:0E000000000C1F1FFF8385FF0FC00FE00F4095
:00000001FF
