:04000000E9EF04F030
:1008000000000F0EC16E92909292929492969380F5
:10081000938293849386000E956E898081A013EF56
:1008200004F015EF04F019EF04F003C08CFF3AEF69
:1008300004F081A21EEF04F020EF04F024EF04F096
:1008400005C08CFF3AEF04F081A429EF04F02BEFF0
:1008500004F02FEF04F007C08CFF3AEF04F081A6FC
:1008600034EF04F036EF04F03AEF04F015C08CFFDB
:100870003AEF04F0070E216E7D0EE82EFED7212EF2
:10088000FCD700008990898281A049EF04F04BEFEA
:1008900004F04FEF04F009C08CFF70EF04F081A268
:1008A00054EF04F056EF04F05AEF04F00BC08CFF45
:1008B00070EF04F081A45FEF04F061EF04F065EFE6
:1008C00004F00DC08CFF70EF04F081A66AEF04F015
:1008D0006CEF04F070EF04F017C08CFF70EF04F0C1
:1008E000070E216E7D0EE82EFED7212EFCD70000CC
:1008F0008992898481A07FEF04F081EF04F085EF75
:1009000004F00FC08CFFA6EF04F081A28AEF04F080
:100910008CEF04F090EF04F011C08CFFA6EF04F010
:1009200081A495EF04F097EF04F09BEF04F013C05F
:100930008CFFA6EF04F081A6A0EF04F0A2EF04F074
:10094000A6EF04F019C08CFFA6EF04F0070E216E8D
:100950007D0EE82EFED7212EFCD7000089948986D3
:1009600081A0B5EF04F0B7EF04F0BBEF04F01DC0B9
:100970008CFFDCEF04F081A2C0EF04F0C2EF04F0C2
:10098000C6EF04F001C08CFFDCEF04F081A4CBEFD4
:1009900004F0CDEF04F0D1EF04F01FC08CFFDCEFCA
:1009A00004F081A6D6EF04F0D8EF04F0DCEF04F0F9
:1009B0001BC08CFFDCEF04F0070E216E7D0EE82ECD
:1009C000FED7212EFCD7000089960DEF04F000EF32
:1009D00000F0F80EF66E090EF76E000EF86E00EEDF
:1009E00001F010EE20F00900F5CFEEFFE550E150E8
:1009F000FAE1000101EF04F03F0006005B004F0048
:100A000066006D007D0007007F00670077007C00B6
:080A100039005E00790071005D
:020000040030CA
:0E000000000C1F1FFF8385FF0FC00FE00F4095
:00000001FF
