:040000008BEF04F08E
:1008000000000F0EC16E000E936E010E956E83A058
:100810000CEF04F00EEF04F00FEF04F08A8083A2D7
:1008200014EF04F016EF04F017EF04F08A8283A4AB
:100830001CEF04F01EEF04F01FEF04F08A8483A67F
:1008400024EF04F026EF04F027EF04F08A8683A853
:100850002CEF04F02EEF04F02FEF04F08A8883AA27
:1008600034EF04F036EF04F037EF04F08A8A83ACFB
:100870003CEF04F03EEF04F03FEF04F08A8C83AECF
:1008800044EF04F046EF04F047EF04F08A8E83B0A3
:100890004CEF04F04EEF04F04FEF04F08A9083B277
:1008A00054EF04F056EF04F057EF04F08A9283B44B
:1008B0005CEF04F05EEF04F05FEF04F08A9483B61F
:1008C00064EF04F066EF04F067EF04F08A9683B8F3
:1008D0006CEF04F06EEF04F06FEF04F08A9883BAC7
:1008E00074EF04F076EF04F077EF04F08A9A83BC9B
:1008F0007CEF04F07EEF04F07FEF04F08A9C83BE6F
:1009000084EF04F086EF04F007EF04F08A9E07EF0F
:0C09100004F000EF00F0000101EF04F023
:020000040030CA
:0E000000000C1F1FFF8385FF0FC00FE00F4095
:00000001FF
