:0400000044EF04F0D5
:1008000000000F0EC16E000E936E92809282928451
:1008100080A00DEF04F00FEF04F018EF04F0014A90
:10082000022A80B016EF04F018EF04F011EF04F084
:1008300080A21DEF04F01FEF04F02CEF04F0FF0E78
:100840000124016EFF0E0220026E80B22AEF04F036
:100850002CEF04F025EF04F080A431EF04F033EF27
:1008600004F03EEF04F0000E026E000E016E80B444
:100870003CEF04F03EEF04F037EF04F001C08AFFD4
:1008800008EF04F000EF00F0026A016A000101EFD6
:0208900004F072
:020000040030CA
:0E000000000C1F1FFF8385FF0FC00FE00F4095
:00000001FF
