:0400000018EF09F0FC
:1008000000001A50800B276E1A501A242E6E19AE53
:100810000CEF04F00EEF04F00FEF04F02E802E50DA
:10082000D8B415EF04F017EF04F02CEF04F02E28E5
:10083000D8A41DEF04F01FEF04F027EF04F0000E22
:10084000176E000E186E000E196E000E1A6E198EBD
:10085000000E1A6E34EF04F0000E176E000E186EC4
:10086000000E196E000E1A6E1E50800B271A1E50B5
:100870001E242F6E1DAE3FEF04F041EF04F042EF57
:1008800004F02F802F50D8B448EF04F04AEF04F062
:100890005FEF04F02F28D8A450EF04F052EF04F0DB
:1008A0005AEF04F0000E1B6E000E1C6E000E1D6E43
:1008B000000E1E6E1D8E000E1E6E67EF04F0000E01
:1008C0001B6E000E1C6E000E1D6E000E1E6E1B5069
:1008D0001C101D101E10D8A470EF04F072EF04F06D
:1008E0008AEF04F0000E176E000E186E000E196EDF
:1008F000000E1A6E800E19127F0E1A1227501A124D
:1009000017C017F018C018F019C019F01AC01AF063
:10091000CDEF05F02E50D8A490EF04F092EF04F044
:100920009CEF04F0000E176E000E186E000E196E8C
:10093000000E1A6ECDEF05F02F502EC01FF0206A6A
:100940001F5E000E205A7F0E1F24286E000E2020EE
:10095000296E17C023F018C024F019C025F01AC062
:1009600026F0000E176E000E186E000E196E000EA7
:100970001A6E000E2A6E000E2B6E000E2C6E000EEC
:100980002D6E000E2F6EFDEF04F02F50D8B4CBEF7C
:1009900004F0CDEF04F0E4EF04F0D89023362436D1
:1009A00025362636D8901736183619361A362DAE13
:1009B000DCEF04F0DEEF04F0DFEF04F01780D890F6
:1009C0002A362B362C362D361B50235C1C502458CF
:1009D0001D5025581E502658D8A0F1EF04F0F3EF13
:1009E00004F0FCEF04F02D8C1B50235E1C50245AA5
:1009F0001D50255A1E50265A2F2A190E2F6403EF18
:100A000005F005EF05F0C5EF04F023502410251084
:100A10002610D8B40EEF05F010EF05F028EF05F022
:100A20002A8028EF05F0D8901736183619361A366E
:100A30002DAE1DEF05F01FEF05F020EF05F017803C
:100A4000D8902A362B362C362D362806D8A02906E3
:100A500019AE2DEF05F02FEF05F013EF05F0000EA6
:100A60002F6E2DAE36EF05F038EF05F05CEF05F098
:100A7000FF0E2A141F6EFF0E2B14206EFF0E2C1477
:100A8000216E7F0E2D14226E1F5020102110221077
:100A9000D8B44DEF05F04FEF05F053EF05F0010E20
:100AA0002F6E5CEF05F017A058EF05F05AEF05F038
:100AB0005CEF05F04FEF05F02F50D8B462EF05F072
:100AC00064EF05F088EF05F0010E1726000E1822DE
:100AD00019221A221AA06FEF05F071EF05F088EFC6
:100AE00005F017C01FF018C020F019C021F01AC07F
:100AF00022F022342232213220321F321FC017F05E
:100B000020C018F021C019F022C01AF0284A292A62
:100B100029BE93EF05F0295008E12828D8A093EFCB
:100B200005F095EF05F0A0EF05F0000E296E28689E
:100B3000000E176E000E186E000E196E000E1A6E63
:100B400029BEADEF05F0295006E12804D8B0ABEF7F
:100B500005F0ADEF05F0BBEF05F0000E296E000EBD
:100B6000286E000E176E000E186E000E196E000E25
:100B70001A6E000E276E28C02EF02EA0C2EF05F0D0
:100B8000C4EF05F0C7EF05F0198EC8EF05F0199E08
:100B9000D8902E301A6E7EEF04F01200000E956E83
:100BA0009490948294949690969254EC09F0000E4E
:100BB000026E000E016ECAEC08F001C042F002C0E5
:100BC00043F0000E026E010E016ECAEC08F001C087
:100BD00040F002C041F0140E1B6EAE0E1C6E230ED0
:100BE0001D6E410E1E6E000E046E020E036E40500E
:100BF0004224016E41504320026E68EC08F001C0AF
:100C000009F002C00AF0000E0ABEFF0E0B6E0C6E59
:100C1000010E0BEC07F009C017F00AC018F00BC06A
:100C200019F00CC01AF001EC04F017C030F018C035
:100C300031F019C032F01AC033F0E5EC07F030C0E3
:100C40003EF031C03FF03EC001F03FC002F0000E68
:100C5000046E0A0E036E68EC08F001C03CF002C09E
:100C60003DF03C50020DF350600FD96EDA6ADF5050
:100C70008C6E8D908D82020E3B6E450E3A6EAA0EE2
:100C8000E82EFED73A2EFCD73B2EFAD73CC001F017
:100C90003DC002F0FF0E046EF60E036E31EC09F05B
:100CA0003E500124486E3F500220496E4850020DCC
:100CB000F350600FD96EDA6ADF508C6E8D808D92A2
:100CC000020E3B6E450E3A6EAA0EE82EFED73A2E65
:100CD000FCD73B2EFAD782A270EF06F072EF06F037
:100CE0007FEF06F0010E4624466E000E4720476E49
:100CF00082B27DEF06F07FEF06F078EF06F0820E0D
:100D00003A6EDE0EE82EFED73A2EFCD74604471088
:100D1000D8A48DEF06F08FEF06F090EF06F08B84ED
:100D2000410E3A6EEE0EE82EFED73A2EFCD700D0DA
:100D3000020E46184710D8A4A0EF06F0A2EF06F066
:100D4000A7EF06F0000E476E000E466E8B94410E24
:100D50003A6EEE0EE82EFED73A2EFCD700D03FBEFC
:100D6000BDEF06F03F5007E10B0E3E5CD8B0BBEF85
:100D700006F0BDEF06F0C3EF06F08B948B80000EFB
:100D8000476E000E466E000E026E000E016ECAEC3B
:100D900008F001C03AF002C03BF0000E026E010EF6
:100DA000016ECAEC08F001503A5C446E02503B58A8
:100DB000456E45BEE0EF06F0DEEF06F0E4EF06F02C
:100DC000446C451ED8B0452A45BEF0EF06F04550AC
:100DD00009E1640E445CD8A0F0EF06F0F2EF06F0F3
:100DE000F8EF06F08B94000E476E000E466E8B8077
:100DF0003FBE04EF07F03F5009E10B0E3E5CD8A068
:100E000004EF07F006EF07F0D7EF05F08B90D7EF70
:100E100005F000EF00F0116E1150D8B412EF07F09A
:100E200014EF07F036EF07F00CBE1BEF07F019EFD9
:100E300007F036EF07F009C00DF00AC00EF00BC046
:100E40000FF00CC010F00D1E0E1E0F1E101E0D2AEE
:100E5000000E0E220F2210220DC013F00EC014F04F
:100E60000FC015F010C016F03EEF07F009C013F0E8
:100E70000AC014F00BC015F00CC016F009500A108F
:100E80000B100C10D8A447EF07F049EF07F053EF11
:100E900007F0000E096E000E0A6E000E0B6E000EBB
:100EA0000C6EE4EF07F0960E126E5DEF07F0122A5B
:100EB000D8901632153214321332000E13140D6E00
:100EC000000E14140E6E000E15140F6EFE0E161486
:100ED000106E0D500E100F101010D8A472EF07F006
:100EE00074EF07F057EF07F082EF07F0122A010EB8
:100EF0001326000E142215221622D890163215320F
:100F000014321332000E13140D6E000E14140E6EF4
:100F1000000E15140F6EFF0E1614106E0D500E10ED
:100F20000F101010D8A497EF07F099EF07F076EFA5
:100F300007F0A1EF07F01206D890133614361536D5
:100F4000163615BEA6EF07F0A8EF07F0B0EF07F0D2
:100F5000020E1260AEEF07F0B0EF07F09BEF07F064
:100F600012B0B5EF07F0B7EF07F0B8EF07F0159E36
:100F7000D890123212C00DF00E6A0F6A106A0DC0BE
:100F800010F00F6A0E6A0D6A0D5013120E501412F3
:100F90000F501512105016121150D8B4D2EF07F09E
:100FA000D4EF07F0DCEF07F00CBEDBEF07F0D9EF72
:100FB00007F0DCEF07F0168E13C009F014C00AF03A
:100FC00015C00BF016C00CF0120032343334396EF9
:100FD0003950D8A4EEEF07F0F0EF07F0FAEF07F082
:100FE000000E306E000E316E000E326E000E336E4B
:100FF00067EF08F030C034F031C035F032C036F061
:1010000033C037F0200E0AEF08F0D890373236326E
:1010100035323432E82E05EF08F03450386E328E17
:10102000FF0E3016FF0E3116FF0E3216000E33166D
:10103000960E395E39BE21EF08F01FEF08F037EF4A
:1010400008F03950800A970FD8B029EF08F02BEF3D
:1010500008F02DEF08F0F0EF07F0D890333232327D
:1010600031323032393E2DEF08F04FEF08F01F0ECD
:1010700039643DEF08F03FEF08F047EF08F0F0EF7C
:1010800007F0D8903036313632363336390639509B
:10109000D8A44DEF08F04FEF08F041EF08F03850BA
:1010A000D8B455EF08F057EF08F05FEF08F0331EA3
:1010B000321E311E306C000E31223222332230C0FB
:1010C00030F031C031F032C032F033C033F01200B2
:1010D000000E066E04BE71EF08F06FEF08F077EFB8
:1010E00008F0036C041ED8B0042A010E066E02BE7E
:1010F0007EEF08F07CEF08F084EF08F0016C021E30
:10110000D8B0022A010E061A000E086E000E076EF5
:1011100003500410D8B48FEF08F091EF08F0B9EF46
:1011200008F0010E056E99EF08F0D89003360436EA
:10113000052A04AE9EEF08F0A0EF08F095EF08F046
:10114000D890073608360350015C04500258D8A0E6
:10115000ACEF08F0AEEF08F0B3EF08F00350015E1B
:101160000450025A0780D89004320332052EA0EFB3
:1011700008F00650D8B4BFEF08F0C1EF08F0C5EF93
:1011800008F0076C081ED8B0082A07C001F008C094
:1011900002F0120001C003F0D8900336D890033655
:1011A0003C0E0316C250C30B0310C26EC2B2DBEF7B
:1011B00008F0DFEF08F0036A032AE0EF08F0036AA3
:1011C000010E046E032AE7EF08F0D8900436032ED0
:1011D000E5EF08F0C2B0EFEF08F0F3EF08F0056AB2
:1011E000052AF4EF08F0056A010E066E052AFBEFEA
:1011F00008F0D8900636052EF9EF08F006500410D6
:10120000C212C2B206EF09F008EF09F001EF09F0CF
:10121000C350C4CF03F0046A03C004F0036A031090
:10122000076E0450086E07C001F008C002F01200FB
:10123000880EF66E120EF76E000EF86E00EE60F07D
:1012400010EE20F00900F5CFEEFFE550E150FAE195
:10125000496A486A476A466A456A446A0001CEEFAD
:1012600005F001500302F3CF05F0F4CF06F0015072
:101270000402F350062602500302F350062605C06E
:1012800001F006C002F012003F0006005B004F00B4
:1012900066006D007D0007007F00670077007C001E
:1012A00039005E007900710092680D0EC16EB50EB6
:0C12B000C06E000EC46E000EC36E120073
:020000040030CA
:0E000000000C1F1FFF8385FF0FC00FE00F4095
:00000001FF
