:040000003EEF04F0DB
:1008000000000F0EC16E000E956E96909692000E2F
:10081000246E000E236E2350020DF350010FD96E8B
:10082000DA6ADF508C6E23B018EF04F01AEF04F090
:100830001EEF04F08D908D8220EF04F08D808D925C
:100840001A0E226E5E0E216E6E0EE82EFED7212E3F
:10085000FCD7222EFAD700D0234A242A24BE3AEF0E
:1008600004F0245009E1100E235CD8A03AEF04F004
:100870003CEF04F00BEF04F000EF00F0A20EF66E78
:10088000080EF76E000EF86E00EE01F010EE20F08C
:100890000900F5CFEEFFE550E150FAE1000101EF6C
:1008A00004F03F0006005B004F0066006D007D0015
:1008B00007007F00670077007C0039005E00790048
:0208C0007100C5
:020000040030CA
:0E000000000C1F1FFF8385FF0FC00FE00F4095
:00000001FF
