:0400000015EF07F001
:10080000000080A006EF04F008EF04F00CEF04F005
:10081000014A022A19EF04F080B011EF04F013EF3F
:1008200004F019EF04F0FF0E0124016EFF0E022008
:10083000026E80A21EEF04F020EF04F024EF04F01B
:10084000014A022A31EF04F080B229EF04F02BEFC5
:1008500004F031EF04F0FF0E0124016EFF0E0220C0
:10086000026E80A436EF04F038EF04F03CEF04F0A1
:10087000014A022A49EF04F080B441EF04F043EF4B
:1008800004F049EF04F0FF0E0124016EFF0E022078
:10089000026E01040210D8A450EF04F052EF04F0ED
:1008A000EEEF04F080A057EF04F059EF04F09FEF53
:1008B00004F082B05EEF04F060EF04F069EF04F042
:1008C00006EC06F082A067EF04F069EF04F062EF37
:1008D00004F082B26EEF04F070EF04F079EF04F0F0
:1008E00012EC05F082A277EF04F079EF04F072EFDA
:1008F00004F00350055C0650800A096E0450800A1B
:100900000958D8B086EF04F088EF04F08BEF04F0BC
:100910008C809FEF04F00550035C0450800A096E40
:100920000650800A0958D8B098EF04F09AEF04F006
:100930009DEF04F08C829FEF04F0010E8C6E80A47A
:10094000A4EF04F0A6EF04F011EF05F082B0ABEFD6
:1009500004F0ADEF04F0B6EF04F006EC06F082A070
:10096000B4EF04F0B6EF04F0AFEF04F082B2BBEFE7
:1009700004F0BDEF04F0C6EF04F012EC05F082A223
:10098000C4EF04F0C6EF04F0BFEF04F00550035CC1
:100990000450800A096E0650800A0958D8B0D3EF77
:1009A00004F0D5EF04F0D8EF04F08C8011EF05F0DF
:1009B0000350055C0650800A096E0450800A0958ED
:1009C000D8B0E5EF04F0E7EF04F0EAEF04F08C8232
:1009D00011EF05F0010E8C6E11EF05F0010E8A6E1D
:1009E0000B0E0A6E260E096E5E0EE82EFED7092E3D
:1009F000FCD70A2EFAD7000E8A6E0B0E0A6E260E50
:100A0000096E5E0EE82EFED7092EFCD70A2EFAD705
:100A100001040210D8A40FEF05F011EF05F008EF64
:100A200005F012008A80000E046E010E036E030EA4
:100A3000086E8A0E076E560EE82EFED7072EFCD7DC
:100A4000082EFAD78A908A82000E046E020E036E78
:100A5000030E086E8A0E076E560EE82EFED7072E7E
:100A6000FCD7082EFAD78A928A84000E046E030EF1
:100A7000036E030E086E8A0E076E560EE82EFED722
:100A8000072EFCD7082EFAD78A948A86000E046EA9
:100A9000040E036E030E086E8A0E076E560EE82EC5
:100AA000FED7072EFCD7082EFAD78A968A88000E22
:100AB000046E050E036E030E086E8A0E076E560E48
:100AC000E82EFED7072EFCD7082EFAD78A988A8AF6
:100AD000000E046E060E036E030E086E8A0E076E7D
:100AE000560EE82EFED7072EFCD7082EFAD78A9A84
:100AF0008A8C000E046E070E036E030E086E8A0EBB
:100B0000076E560EE82EFED7072EFCD7082EFAD712
:100B10008A9C8A8E000E046E080E036E030E086E09
:100B20008A0E076E560EE82EFED7072EFCD7082E2B
:100B3000FAD78A9E8A8C000E046E070E036E030E8F
:100B4000086E8A0E076E560EE82EFED7072EFCD7CB
:100B5000082EFAD78A9C8A8A000E046E060E036E4F
:100B6000030E086E8A0E076E560EE82EFED7072E6D
:100B7000FCD7082EFAD78A9A8A88000E046E050ED2
:100B8000036E030E086E8A0E076E560EE82EFED711
:100B9000072EFCD7082EFAD78A988A86000E046E94
:100BA000040E036E030E086E8A0E076E560EE82EB4
:100BB000FED7072EFCD7082EFAD78A968A84000E15
:100BC000046E030E036E030E086E8A0E076E560E39
:100BD000E82EFED7072EFCD7082EFAD78A948A82F1
:100BE000000E046E020E036E030E086E8A0E076E70
:100BF000560EE82EFED7072EFCD7082EFAD78A927B
:100C00008A80000E046E010E036E12008A80000EB0
:100C1000066E010E056E030E086E8A0E076E560EE6
:100C2000E82EFED7072EFCD7082EFAD78A908A82A4
:100C3000000E066E020E056E030E086E8A0E076E1B
:100C4000560EE82EFED7072EFCD7082EFAD78A922A
:100C50008A84000E066E030E056E030E086E8A0E61
:100C6000076E560EE82EFED7072EFCD7082EFAD7B1
:100C70008A948A86000E066E040E056E030E086EB8
:100C80008A0E076E560EE82EFED7072EFCD7082ECA
:100C9000FAD78A968A88000E066E050E056E030E38
:100CA000086E8A0E076E560EE82EFED7072EFCD76A
:100CB000082EFAD78A988A8A000E066E060E056EEE
:100CC000030E086E8A0E076E560EE82EFED7072E0C
:100CD000FCD7082EFAD78A9A8A8C000E066E070E69
:100CE000056E030E086E8A0E076E560EE82EFED7AE
:100CF000072EFCD7082EFAD78A9C8A8E000E066E25
:100D0000080E056E030E086E8A0E076E560EE82E4C
:100D1000FED7072EFCD7082EFAD78A9E8A8C000EA3
:100D2000066E070E056E030E086E8A0E076E560ECF
:100D3000E82EFED7072EFCD7082EFAD78A9C8A8A7F
:100D4000000E066E060E056E030E086E8A0E076E06
:100D5000560EE82EFED7072EFCD7082EFAD78A9A11
:100D60008A88000E066E050E056E030E086E8A0E4A
:100D7000076E560EE82EFED7072EFCD7082EFAD7A0
:100D80008A988A86000E066E040E056E030E086EA3
:100D90008A0E076E560EE82EFED7072EFCD7082EB9
:100DA000FAD78A968A84000E066E030E056E030E2D
:100DB000086E8A0E076E560EE82EFED7072EFCD759
:100DC000082EFAD78A948A82000E066E020E056EED
:100DD000030E086E8A0E076E560EE82EFED7072EFB
:100DE000FCD7082EFAD78A928A80000E066E010E72
:100DF000056E12000F0EC16E010E926E000E936E04
:100E0000010E946E000E956E01EC04F04D0E0C6E0A
:100E1000190E0B6E500EE82EFED70B2EFCD70C2EA3
:100E2000FAD704EF07F000EF00F0540EF66E0E0E46
:100E3000F76E000EF86E0900F5CF0DF00900F5CF42
:100E40000EF0066A056A046A036A026A016A000112
:060E5000FAEF06F0640059
:020000040030CA
:0E000000000C1F1FFF8385FF0FC00FE00F4095
:00000001FF
