:04000000B9EF04F060
:1008000000000F0EC16E010E936E000E956E8150AA
:10081000D8A40DEF04F00FEF04F011EF04F001C0C5
:100820008CFF8104D8A417EF04F019EF04F01BEF3C
:1008300004F003C08CFF020E8118D8A422EF04F04C
:1008400024EF04F026EF04F005C08CFF030E81189E
:10085000D8A42DEF04F02FEF04F031EF04F007C01F
:100860008CFF040E8118D8A438EF04F03AEF04F09E
:100870003CEF04F009C08CFF050E8118D8A443EFAB
:1008800004F045EF04F047EF04F00BC08CFF060EB8
:100890008118D8A44EEF04F050EF04F052EF04F0AA
:1008A0000DC08CFF070E8118D8A459EF04F05BEF40
:1008B00004F05DEF04F00FC08CFF080E8118D8A47F
:1008C00064EF04F066EF04F068EF04F011C08CFFF1
:1008D000090E8118D8A46FEF04F071EF04F073EFE4
:1008E00004F013C08CFF0A0E8118D8A47AEF04F02C
:1008F0007CEF04F07EEF04F015C08CFF0B0E811826
:10090000D8A485EF04F087EF04F089EF04F017C056
:100910008CFF0C0E8118D8A490EF04F092EF04F035
:1009200094EF04F019C08CFF0D0E8118D8A49BEF32
:1009300004F09DEF04F09FEF04F01BC08CFF0E0E3F
:100940008118D8A4A6EF04F0A8EF04F0AAEF04F0F1
:100950001DC08CFF0F0E8118D8A4B1EF04F0B3EFC7
:1009600004F007EF04F01FC08CFF07EF04F000EF66
:1009700000F0980EF66E090EF76E000EF86E00EE9F
:1009800001F010EE20F00900F5CFEEFFE550E15048
:10099000FAE1000101EF04F03F0006005B004F00A8
:1009A00066006D007D0007007F00670077007C0017
:0809B00039005E0079007100BE
:020000040030CA
:0E000000000C1F1FFF8385FF0FC00FE00F4095
:00000001FF
