:0400000099EF04F080
:1008000000000F0EC16E000E936E8A808A828A8469
:10081000060E026E130E016EAE0EE82EFED7012EEE
:10082000FCD7022EFAD78A908A86060E026E130E25
:10083000016EAE0EE82EFED7012EFCD7022EFAD79F
:100840008A928A88060E026E130E016EAE0EE82E94
:10085000FED7012EFCD7022EFAD78A948A8A060E7A
:10086000026E130E016EAE0EE82EFED7012EFCD7DF
:10087000022EFAD78A968A8C060E026E130E016E2D
:10088000AE0EE82EFED7012EFCD7022EFAD78A989C
:100890008A8E060E026E130E016EAE0EE82EFED785
:1008A000012EFCD7022EFAD78A9E8A88060E026E87
:1008B000130E016EAE0EE82EFED7012EFCD7022ECF
:1008C000FAD78A9C8A86060E026E130E016EAE0E51
:1008D000E82EFED7012EFCD7022EFAD78A9A8A84F8
:1008E000060E026E130E016EAE0EE82EFED7012E1E
:1008F000FCD7022EFAD78A988A82060E026E130E51
:10090000016EAE0EE82EFED7012EFCD7022EFAD7CE
:100910008A968A80060E026E130E016EAE0EE82EC7
:10092000FED7012EFCD7022EFAD705EF04F000EF18
:0809300000F0000101EF04F0EA
:020000040030CA
:0E000000000C1F1FFF8385FF0FC00FE00F4095
:00000001FF
