:04000000D9EF04F040
:1008000000000F0EC16E000E936E8A801A0E026EEB
:100810005E0E016E6E0EE82EFED7012EFCD7022E64
:10082000FAD700D08A821A0E026E5E0E016E6E0E2C
:10083000E82EFED7012EFCD7022EFAD700D08A84EC
:100840001A0E026E5E0E016E6E0EE82EFED7012E9F
:10085000FCD7022EFAD700D08A861A0E026E5E0EE0
:10086000016E6E0EE82EFED7012EFCD7022EFAD7AF
:1008700000D08A881A0E026E5E0E016E6E0EE82E91
:10088000FED7012EFCD7022EFAD700D08A8A1A0E84
:10089000026E5E0E016E6E0EE82EFED7012EFCD7A4
:1008A000022EFAD700D08A8C1A0E026E5E0E016EEE
:1008B0006E0EE82EFED7012EFCD7022EFAD700D0FE
:1008C0008A8E1A0E026E5E0E016E6E0EE82EFED736
:1008D000012EFCD7022EFAD700D08A901A0E026E93
:1008E0005E0E016E6E0EE82EFED7012EFCD7022E94
:1008F000FAD700D08A921A0E026E5E0E016E6E0E4C
:10090000E82EFED7012EFCD7022EFAD700D08A940B
:100910001A0E026E5E0E016E6E0EE82EFED7012ECE
:10092000FCD7022EFAD700D08A961A0E026E5E0EFF
:10093000016E6E0EE82EFED7012EFCD7022EFAD7DE
:1009400000D08A981A0E026E5E0E016E6E0EE82EB0
:10095000FED7012EFCD7022EFAD700D08A9A1A0EA3
:10096000026E5E0E016E6E0EE82EFED7012EFCD7D3
:10097000022EFAD700D08A9C1A0E026E5E0E016E0D
:100980006E0EE82EFED7012EFCD7022EFAD700D02D
:100990008A9E1A0E026E5E0E016E6E0EE82EFED755
:1009A000012EFCD7022EFAD700D005EF04F000EF9D
:0809B00000F0000101EF04F06A
:020000040030CA
:0E000000000C1F1FFF8385FF0FC00FE00F4095
:00000001FF
